:020000040800F2
:100000007006002089010008910100089301000892
:100010009501000897010008990100080000000000
:100020000000000000000000000000009B0100082C
:100030009D010008000000009F010008A1010008C8
:10004000A3010008A3010008A3010008A301000800
:10005000A3010008A3010008A3010008A3010008F0
:10006000A3010008A3010008A3010008A3010008E0
:10007000A3010008A3010008A3010008A3010008D0
:10008000A3010008A3010008A3010008A3010008C0
:10009000A3010008A3010008A3010008A3010008B0
:1000A000A3010008A3010008A3010008A3010008A0
:1000B000A3010008A3010008A3010008A301000890
:1000C000A3010008A3010008A3010008A301000880
:1000D000A3010008A3010008A3010008A301000870
:1000E000A3010008A3010008A301000800F002F822
:1000F00000F03AF80AA090E8000C82448344AAF188
:100100000107DA4501D100F02FF8AFF2090EBAE885
:100110000F0013F0010F18BFFB1A43F0010318473B
:10012000B4040000D4040000103A24BF78C878C199
:10013000FAD8520724BF30C830C144BF04680C60ED
:10014000704700000023002400250026103A28BF35
:1001500078C1FBD8520728BF30C148BF0B60704739
:100160001FB51FBD10B510BD00F031F81146FFF7E7
:10017000F7FF00F073F900F04FF803B4FFF7F2FF58
:1001800003BC00F057F800000948804709480047C1
:10019000FEE7FEE7FEE7FEE7FEE7FEE7FEE7FEE737
:1001A000FEE7FEE704480549054A064B7047000094
:1001B00031030008ED0000087000002070060020E8
:1001C000700200207002002070477047704775462B
:1001D00000F02CF8AE4605006946534620F00700B3
:1001E000854618B020B5FFF7DDFFBDE820404FF091
:1001F00000064FF000074FF000084FF0000B21F011
:100200000701AC46ACE8C009ACE8C009ACE8C009DD
:10021000ACE8C0098D46704710B50446AFF30080C6
:100220002046BDE81040FFF7A8BF00000048704717
:100230001000002001491820ABBEFEE72600020096
:1002400070470161704710B500F002F810BD000062
:100250000CB50020019000903348006840F48030D5
:100260003149086000BF3048006800F40030009059
:100270000198401C0190009818B90198B0F5A06F42
:10028000F1D12948006800F4003010B1012000903D
:1002900001E0002000900098012843D12348006825
:1002A00040F01000214908600846006820F007006F
:1002B00008600846006840F0020008601A4840687C
:1002C000194948600846406848600846406840F45C
:1002D000806048600846406820F47C10486008460A
:1002E000406840F4E81048600846006840F08070BC
:1002F000086000BF0C48006800F000700028F9D0CA
:100300000948406820F003000749486008464068F3
:1003100040F00200486000BF0348406800F00C0055
:100320000828F9D10CBD0000001002400020024056
:1003300010B51348006840F00100114908600846F4
:100340004068104908400E494860084600680E4958
:1003500008400B4908600846006820F480200860C7
:100360000846406820F4FE0048604FF41F00886093
:10037000FFF769FF4FF000600449086010BD0000FE
:10038000001002400000FFF8FFFFF6FE08ED00E05D
:1003900000BF011EA0F10100FBD170470C4880692D
:1003A00040F004000A4988610A48006820F00F0004
:1003B000084908600846006840F0080008600548E1
:1003C0000C30006840F0010002490C3108607047B1
:1003D00000100240000801401D48806940F01000F4
:1003E0001B4988611B48406820F470001949486027
:1003F0000846406840F4401048600846406820F4D1
:10040000400048600846C06820F40050C8601048AA
:10041000806940F008000E4988614FF033300E4982
:100420000860081D00686FF30F00091D086008468A
:10043000006843F2333108430749091D0860064844
:100440000C30006840F47F4003490C31086070476D
:100450000010024000100140000C0140FFF7BCFFFB
:10046000FFF79CFF1AE00E48006800F0010080B919
:1004700000BF0B48006800F001000028F9D00948CF
:100480000068401C074908604FF400510648FFF718
:10049000D8FE0449098888B200F008F8E3E70000B4
:1004A000080801400C0000200010014010B5034670
:1004B0000A2093FBF0F100FB11344448006820F45B
:1004C0000060424908600846006820F0FF000860AC
:1004D000084600683E49095D08433C4908606420BD
:1004E000FFF756FF3948006840F40060374908605C
:1004F0000A2093FBF0F083B20A2093FBF0F100FB9B
:1005000011343248006820F48060304908600846A1
:10051000006820F0FF000860084600682C49095D6B
:1005200008432A4908606420FFF732FF2748006823
:1005300040F48060254908600A2093FBF0F083B204
:100540000A2093FBF0F100FB11342048006820F4EE
:1005500000701E4908600846006820F0FF0008602F
:10056000084600681A49095D084318490860642074
:10057000FFF70EFF1548006840F40070134908604B
:100580000A2093FBF0F083B20A2093FBF0F100FB0A
:1005900011340E48006820F480700C490860084649
:1005A000006820F0FF000860084600680849095DFF
:1005B0000843064908606420FFF7EAFE0348006824
:1005C00040F480700149086010BD00000C0C01402F
:1005D00000000020F40500080000002010000000CA
:1005E0002801000804060008100000206006000032
:1005F000440100083F065B4F666D7D077F6F00007A
:0406000000000000F6
:04000005080000ED02
:00000001FF
