:020000040800F2
:10000000600600206D0100087501000877010008F6
:10001000790100087B0100087D0100080000000054
:100020000000000000000000000000007F01000848
:10003000810100080000000083010008850100081C
:100040008701000887010008870100088701000870
:100050008701000887010008870100088701000860
:100060008701000887010008870100088701000850
:100070008701000887010008870100088701000840
:100080008701000887010008870100088701000830
:100090008701000887010008870100088701000820
:1000A0008701000887010008870100088701000810
:1000B0008701000887010008870100088701000800
:1000C00087010008870100088701000887010008F0
:1000D00087010008870100088701000887010008E0
:1000E00087010008870100088701000800F002F876
:1000F00000F02CF80AA090E8000C82448344AAF196
:100100000107DA4501D100F021F8AFF2090EBAE893
:100110000F0013F0010F18BFFB1A43F0010318473B
:1001200018040000280400000023002400250026F5
:10013000103A28BF78C1FBD8520728BF30C148BF4A
:100140000B6070471FB51FBD10B510BD00F050F813
:100150001146FFF7F7FF00F0DFF900F06EF803B487
:10016000FFF7F2FF03BC00F075F800000948804774
:1001700009480047FEE7FEE7FEE7FEE7FEE7FEE789
:10018000FEE7FEE7FEE7FEE704480549054A064BA1
:10019000704700004D030008ED00000860000020DB
:1001A00060060020600200206002002010B5431CA1
:1001B00002E010F8011B71B18107FAD14FF0013252
:1001C00002C88C1A8C4314EAC211F9D0C01A0A066C
:1001D00003D0C01E10BDC01A10BD0A0401D0801E7D
:1001E00010BD0902FCD0401E10BD7047704770471B
:1001F000754600F02BF8AE4605006946534620F0E0
:100200000700854618B020B5FFF7BEFFBDE82040C7
:100210004FF000064FF000074FF000084FF0000BC2
:1002200021F00701AC46ACE8C009ACE8C009ACE875
:10023000C009ACE8C0098D46704710B50446AFF35D
:1002400000802046BDE81040FFF789BF0048704796
:100250000000002001491820ABBEFEE72600020086
:10026000704710B500F002F810BD00000CB500207A
:10027000019000903348006840F4803031490860B4
:1002800000BF3048006800F4003000900198401C26
:100290000190009818B90198B0F5A06FF1D12948E4
:1002A000006800F4003010B10120009001E000204F
:1002B00000900098012843D12348006840F01000C6
:1002C000214908600846006820F0070008600846D9
:1002D000006840F0020008601A4840681949486008
:1002E0000846406848600846406840F480604860BE
:1002F0000846406820F47C1048600846406840F496
:10030000E81048600846006840F08070086000BF50
:100310000C48006800F000700028F9D009484068D7
:1003200020F00300074948600846406840F002009A
:10033000486000BF0348406800F00C000828F9D16D
:100340000CBD0000001002400020024010B5134810
:10035000006840F0010011490860084640681049F3
:1003600008400E494860084600680E4908400B499D
:1003700008600846006820F480200860084640684D
:1003800020F4FE0048604FF41F008860FFF769FF0B
:100390004FF000600449086010BD000000100240EA
:1003A0000000FFF8FFFFF6FE08ED00E000BF011EB1
:1003B000A0F10100FBD1704700B503460F4800686B
:1003C00020F001000D4908600846006840F0020076
:1003D00008600B48006820F0FF00094908600846E3
:1003E0000068184308604FF47A70FFF7DFFF034896
:1003F000006820F002000149086000BD0C0C0140BB
:100400000C0801401848806940F0040016498861D2
:1004100016480068154908600846006840F0333007
:10042000086012480C30006820F0FF000F490C31C2
:1004300008600D48806940F008000B4988610C484D
:10044000006820F0FF000A4908600846006840F094
:100450003300086006480C30006820F003000449AF
:100460000C31086070470000001002400008014095
:10047000000C014000B503460F48006840F0010041
:100480000D4908600846006840F0020008600B480B
:10049000006820F0FF00094908600846006818431A
:1004A00008604FF47A70FFF781FF0348006820F07E
:1004B00002000149086000BD0C0C01400C0801401D
:1004C00000B5FFF79FFF0C20FFF776FF3820FFF7FE
:1004D00073FF8020FFF770FF00BD30B505460C4666
:1004E0002DB904F18001C8B2FFF766FF04E004F102
:1004F000C001C8B2FFF760FF30BD70B505460024EB
:1005000003E0285DFFF7B6FF641C2846FFF74EFEA8
:10051000A042F6D870BD0000FFF7D2FF06E0002130
:100520000846FFF7DAFF02A0FFF7E7FFF7E7000052
:10053000686C656E0000000048050008000000209F
:0805400060060000280100081C
:04000005080000ED02
:00000001FF
