:020000040800F2
:1000000060060020750100087D0100087F010008DE
:10001000810100088301000885010008000000003C
:100020000000000000000000000000008701000840
:1000300089010008000000008B0100088D01000804
:100040008F0100088F0100088F0100088F01000850
:100050008F0100088F0100088F0100088F01000840
:100060008F0100088F0100088F0100088F01000830
:100070008F0100088F0100088F0100088F01000820
:100080008F0100088F0100088F0100088F01000810
:100090008F0100088F0100088F0100088F01000800
:1000A0008F0100088F0100088F0100088F010008F0
:1000B0008F0100088F0100088F0100088F010008E0
:1000C0008F0100088F0100088F0100088F010008D0
:1000D0008F0100088F0100088F0100088F010008C0
:1000E0008F0100088F0100088F01000800F002F85E
:1000F00000F031F80AA090E8000C82448344AAF191
:100100000107DA4501D100F026F8AFF2090EBAE88E
:100110000F0013F0010F18BFFB1A43F0010318473B
:10012000CC060000DC060000002300240025002689
:10013000103A28BF78C1FBD8520728BF30C148BF4A
:100140000B607047642900F07D80002070471FB568
:100150001FBD10B510BD00F04AF91146FFF7F7FFBB
:1001600000F010FB00F068F903B4FFF7F2FF03BCE6
:1001700000F070F90948804709480047FEE7FEE7AC
:10018000FEE7FEE7FEE7FEE7FEE7FEE7FEE7FEE747
:1001900004480549054A064B704700004D05000814
:1001A000ED000008600000206006002060020020D2
:1001B000600200200FB41CB5074B06AA7B446946B9
:1001C0000090059800F0FBF80020694600F00AF95D
:1001D0001CBC5DF814FB0000250200002DE9F04175
:1001E0000E460446002020622046E168884730B36E
:1001F000252805D0D4E901219047206A401CF2E768
:10020000E168204600278847050018D0A5F1410085
:10021000192802D820354FF4006732462946204677
:100220002760FFF78FFF40B1012804D0F61D26F0AC
:1002300007060836D8E7361DD6E72846DAE7206AEB
:10024000BDE8F0812DE9F0410646002410687529CB
:10025000314616A510D0AFF30080002802DA4042E4
:1002600013A507E031688A0701D512A502E0490706
:1002700004D511A5012401E0AFF3008000210A227A
:1002800006F1240709E0B0FBF2FCB0FBF2F302FB3D
:100290001C00303078541846491C0028F3D12346FE
:1002A0002A463046BDE8F04100F02AB800000000C0
:1002B0002D0000002B0000002000000010B5431CA2
:1002C00002E010F8011B71B18107FAD14FF0013241
:1002D00002C88C1A8C4314EAC211F9D0C01A0A065B
:1002E00003D0C01E10BDC01A10BD0A0401D0801E6C
:1002F00010BD0902FCD0401E10BD7047704770470A
:100300002DE9F0470D4699469246044600F124082F
:100310000168880604D5E06921F01001216000E041
:100320000120A84201DD471B00E00027A1697A19DE
:1003300002EB0900081AA0612078C00602D420460A
:10034000AFF30080002608E0D4E901211AF8060086
:100350009047206A401C761C20624E45F4DB2078D2
:10036000C0060AD52046AFF3008006E0D4E901219B
:1003700030209047206A401C2062381EA7F10107F8
:10038000F4DC07E0D4E9012118F805009047206A61
:10039000401C2062281EA5F10105F3DC2046AFF3C6
:1003A00000802078000602D50220BDE8F0870120F9
:1003B000FBE7000001694A1C02610878704700B53C
:1003C0008FB0CDE901310021059105497944CDE98E
:1003D000031011466846FFF701FF0FB000BD000093
:1003E000E5FFFFFF0A6802F8010B0A6070477546D7
:1003F00000F02CF8AE4605006946534620F0070091
:10040000854618B020B5FFF7C3FEBDE820404FF089
:1004100000064FF000074FF000084FF0000B21F0EE
:100420000701AC46ACE8C009ACE8C009ACE8C009BB
:10043000ACE8C0098D46704710B50446AFF30080A4
:100440002046BDE81040FFF78FBE0000004870470F
:100450000000002001491820ABBEFEE72600020084
:10046000704710B500F002F810BD00000CB5002078
:10047000019000903348006840F4803031490860B2
:1004800000BF3048006800F4003000900198401C24
:100490000190009818B90198B0F5A06FF1D12948E2
:1004A000006800F4003010B10120009001E000204D
:1004B00000900098012843D12348006840F01000C4
:1004C000214908600846006820F0070008600846D7
:1004D000006840F0020008601A4840681949486006
:1004E0000846406848600846406840F480604860BC
:1004F0000846406820F47C1048600846406840F494
:10050000E81048600846006840F08070086000BF4E
:100510000C48006800F000700028F9D009484068D5
:1005200020F00300074948600846406840F0020098
:10053000486000BF0348406800F00C000828F9D16B
:100540000CBD0000001002400020024010B513480E
:10055000006840F0010011490860084640681049F1
:1005600008400E494860084600680E4908400B499B
:1005700008600846006820F480200860084640684B
:1005800020F4FE0048604FF41F008860FFF769FF09
:100590004FF000600449086010BD000000100240E8
:1005A0000000FFF8FFFFF6FE08ED00E03348C069E9
:1005B00040F0C0503149C8613148006840F4807053
:1005C0002F4908602D48006A40F001002B4908625D
:1005D00000BF2A48006A002101EA50000028F8D133
:1005E0002648006A40F48070244908620846006A80
:1005F00040F40040086200BF22480088C0F3401069
:100600000028F9D01F48008840F010001D490880DC
:100610000020091D0880C813091D0880194800889A
:1006200020F010001749088000BF16480088C0F36A
:1006300040100028F9D000BF12480088C0F34010D5
:100640000028F9D00F48008840F010000D490880BC
:1006500000200C491C3108800120091D0880094830
:10066000008820F010000749088000BF0548008876
:10067000C0F340100028F9D070470000001002407D
:10068000007000400428004000BF011EA0F10100DE
:10069000FBD1704700B503460F48006820F0010009
:1006A0000D4908600846006840F0020008600B48E9
:1006B000006820F0FF0009490860084600681843F8
:1006C00008604FF47A70FFF7DFFF0348006820F0FE
:1006D00002000149086000BD0C0C01400C080140FB
:1006E00000B503460F48006840F001000D4908605E
:1006F0000846006840F0020008600B48006820F0DF
:10070000FF000949086008460068184308604FF474
:100710007A70FFF7B9FF0348006820F00200014932
:10072000086000BD0C0C01400C08014010B50446E7
:10073000224604A12846FFF73DFD284600F014F8A4
:1007400010BD00002564000030B505460C462DB9EB
:1007500004F18001C8B2FFF79DFF04E004F1C0017D
:10076000C8B2FFF797FF30BD70B50546002403E01F
:10077000285DFFF7B5FF641C2846FFF79FFDA042E8
:10078000F6D870BDFFF712FF00240025002600BF39
:1007900028E01548008800F0010070B1641C3B2C73
:1007A00005DD00246D1C3B2D01DD0025761C0E4867
:1007B000008820F001000C49088000210846FFF75E
:1007C000C3FFB0B2FFF7B2FF03210020FFF7BCFF69
:1007D000A8B2FFF7ABFF06210020FFF7B5FFA0B2DC
:1007E000FFF7A4FFD5E7000004280040FC0700083D
:0C07F00000000020600600002801000846
:04000005080000ED02
:00000001FF
