:020000040800F2
:10000000680600208901000891010008930100089A
:100010009501000897010008990100080000000000
:100020000000000000000000000000009B0100082C
:100030009D010008000000009F010008A1010008C8
:10004000A3010008A3010008A3010008A301000800
:10005000A3010008A3010008A3010008A3010008F0
:1000600045020008A3010008A3010008A30100083D
:10007000A3010008A3010008A3010008A3010008D0
:10008000A3010008A3010008A3010008A3010008C0
:10009000A3010008A3010008A3010008A3010008B0
:1000A000A3010008A3010008A3010008A3010008A0
:1000B000A3010008A3010008A3010008A301000890
:1000C000A3010008A3010008A3010008A301000880
:1000D000A3010008A3010008A3010008A301000870
:1000E000A3010008A3010008A301000800F002F822
:1000F00000F03AF80AA090E8000C82448344AAF188
:100100000107DA4501D100F02FF8AFF2090EBAE885
:100110000F0013F0010F18BFFB1A43F0010318473B
:100120007C0300009C030000103A24BF78C878C10B
:10013000FAD8520724BF30C830C144BF04680C60ED
:10014000704700000023002400250026103A28BF35
:1001500078C1FBD8520728BF30C148BF0B60704739
:100160001FB51FBD10B510BD00F031F81146FFF7E7
:10017000F7FF00F08DF900F04FF803B4FFF7F2FF3E
:1001800003BC00F057F800000948804709480047C1
:10019000FEE7FEE7FEE7FEE7FEE7FEE7FEE7FEE737
:1001A000FEE7FEE704480549054A064B7047000094
:1001B00031040008ED0000086800002068060020F7
:1001C000680200206802002070477047704775463B
:1001D00000F02CF8AE4605006946534620F00700B3
:1001E000854618B020B5FFF7DDFFBDE820404FF091
:1001F00000064FF000074FF000084FF0000B21F011
:100200000701AC46ACE8C009ACE8C009ACE8C009DD
:10021000ACE8C0098D46704710B50446AFF30080C6
:100220002046BDE81040FFF7A8BF00000048704717
:100230000400002001491820ABBEFEE726000200A2
:100240007047000007480068C0F3800040B10548CF
:10025000006840F00400034908600120024908706A
:1002600070470000140401400000002010B5304821
:10027000806940F001002E4988610846806940F09D
:10028000080088612B48006820F4706029490860E4
:100290000846006840F40060086026480C3000689A
:1002A00040F0040023490C3108602348806820F4A2
:1002B0007060214988600846806840F480708860DA
:1002C0001E48006840F004001C4908601B480830C4
:1002D000006820F00400194908310860081D006812
:1002E00040F00400091D086008200121002804DBFB
:1002F0000A07130E124A135406E00A07140E114A95
:1003000000F00F031B1FD45400BF082000280DDB92
:1003100000BF00BF00F01F0201219140420992007E
:1003200002F1E022C2F8001100BF00BF00BF10BD03
:1003300000100240000C0140000001400004014098
:1003400000E400E018ED00E010B500F001F810BD89
:100350000CB50020019000903348006840F48030D4
:100360003149086000BF3048006800F40030009058
:100370000198401C0190009818B90198B0F5A06F41
:10038000F1D12948006800F4003010B1012000903C
:1003900001E0002000900098012843D12348006824
:1003A00040F01000214908600846006820F007006E
:1003B00008600846006840F0020008601A4840687B
:1003C000194948600846406848600846406840F45B
:1003D000806048600846406820F47C104860084609
:1003E000406840F4E81048600846006840F08070BB
:1003F000086000BF0C48006800F000700028F9D0C9
:100400000948406820F003000749486008464068F2
:1004100040F00200486000BF0348406800F00C0054
:100420000828F9D10CBD0000001002400020024055
:1004300010B51348006840F00100114908600846F3
:100440004068104908400E494860084600680E4957
:1004500008400B4908600846006820F480200860C6
:100460000846406820F4FE0048604FF41F00886092
:10047000FFF76AFF4FF000600449086010BD0000FC
:10048000001002400000FFF8FFFFF6FE08ED00E05C
:10049000FFF7ECFE00E000BFFDE70000BC04000831
:1004A000000000200400000028010008C00400082B
:1004B0000400002064060000440100080000000061
:04000005080000ED02
:00000001FF
